{
  "transactions": [
    {
      "hash": "0xe97b2e0d7abe304247b55c64ab5dd2b78d6b1aaa65a075d441a8ca31f705eb32",
      "transactionType": "CALL",
      "contractName": null,
      "contractAddress": "0x255b030f3d2b8023c7acc11a5a25c768a4f99af4",
      "function": "approve(address,uint256)",
      "arguments": [
        "0x920b806E40A00E02E7D2b94fFc89860fDaEd3640",
        "1000000"
      ],
      "transaction": {
        "from": "0xeccefbce887dbdc1c393a409baab153f3380a364",
        "to": "0x255b030f3d2b8023c7acc11a5a25c768a4f99af4",
        "gas": "0x109a4",
        "value": "0x0",
        "input": "0x095ea7b3000000000000000000000000920b806e40a00e02e7d2b94ffc89860fdaed364000000000000000000000000000000000000000000000000000000000000f4240",
        "nonce": "0x1b",
        "chainId": "0x515"
      },
      "additionalContracts": [],
      "isFixedGasLimit": false
    },
    {
      "hash": "0xe5c1f74ac6ff2ee181c344b1c1ac86a344d293eeee48c518085a5a80eaa29d90",
      "transactionType": "CALL",
      "contractName": null,
      "contractAddress": "0x920b806e40a00e02e7d2b94ffc89860fdaed3640",
      "function": "swapExactTokensForTokens(uint256,uint256,address[],address,uint256)",
      "arguments": [
        "1000000",
        "0",
        "[0x255b030F3d2b8023C7aCc11A5A25C768a4F99Af4, 0x08bBB4a9D79b8399852cE870a901577a939c9983]",
        "0xECcEfbCE887DBdc1c393A409BaAb153F3380a364",
        "1770968072"
      ],
      "transaction": {
        "from": "0xeccefbce887dbdc1c393a409baab153f3380a364",
        "to": "0x920b806e40a00e02e7d2b94ffc89860fdaed3640",
        "gas": "0x2f2e3",
        "value": "0x0",
        "input": "0x38ed173900000000000000000000000000000000000000000000000000000000000f4240000000000000000000000000000000000000000000000000000000000000000000000000000000000000000000000000000000000000000000000000000000a0000000000000000000000000eccefbce887dbdc1c393a409baab153f3380a36400000000000000000000000000000000000000000000000000000000698ed4080000000000000000000000000000000000000000000000000000000000000002000000000000000000000000255b030f3d2b8023c7acc11a5a25c768a4f99af400000000000000000000000008bbb4a9d79b8399852ce870a901577a939c9983",
        "nonce": "0x1c",
        "chainId": "0x515"
      },
      "additionalContracts": [],
      "isFixedGasLimit": false
    },
    {
      "hash": "0x089771b6ee40f27aa98a6f961e5c95d6cc03a090f6a809ba4e77e7b04e61b0c1",
      "transactionType": "CALL",
      "contractName": null,
      "contractAddress": "0x08bbb4a9d79b8399852ce870a901577a939c9983",
      "function": "approve(address,uint256)",
      "arguments": [
        "0x920b806E40A00E02E7D2b94fFc89860fDaEd3640",
        "1000000000000000000"
      ],
      "transaction": {
        "from": "0xeccefbce887dbdc1c393a409baab153f3380a364",
        "to": "0x08bbb4a9d79b8399852ce870a901577a939c9983",
        "gas": "0xfb13",
        "value": "0x0",
        "input": "0x095ea7b3000000000000000000000000920b806e40a00e02e7d2b94ffc89860fdaed36400000000000000000000000000000000000000000000000000de0b6b3a7640000",
        "nonce": "0x1d",
        "chainId": "0x515"
      },
      "additionalContracts": [],
      "isFixedGasLimit": false
    },
    {
      "hash": "0x5ffab74602231391767a5422e335d8df9792e7c5e6d699e212300c890debfa9e",
      "transactionType": "CALL",
      "contractName": null,
      "contractAddress": "0x920b806e40a00e02e7d2b94ffc89860fdaed3640",
      "function": "swapExactTokensForTokens(uint256,uint256,address[],address,uint256)",
      "arguments": [
        "1000000000000000000",
        "0",
        "[0x08bBB4a9D79b8399852cE870a901577a939c9983, 0x255b030F3d2b8023C7aCc11A5A25C768a4F99Af4]",
        "0xECcEfbCE887DBdc1c393A409BaAb153F3380a364",
        "1770968072"
      ],
      "transaction": {
        "from": "0xeccefbce887dbdc1c393a409baab153f3380a364",
        "to": "0x920b806e40a00e02e7d2b94ffc89860fdaed3640",
        "gas": "0x1d80a",
        "value": "0x0",
        "input": "0x38ed17390000000000000000000000000000000000000000000000000de0b6b3a7640000000000000000000000000000000000000000000000000000000000000000000000000000000000000000000000000000000000000000000000000000000000a0000000000000000000000000eccefbce887dbdc1c393a409baab153f3380a36400000000000000000000000000000000000000000000000000000000698ed408000000000000000000000000000000000000000000000000000000000000000200000000000000000000000008bbb4a9d79b8399852ce870a901577a939c9983000000000000000000000000255b030f3d2b8023c7acc11a5a25c768a4f99af4",
        "nonce": "0x1e",
        "chainId": "0x515"
      },
      "additionalContracts": [],
      "isFixedGasLimit": false
    },
    {
      "hash": "0x893c4c809b010e1d4070326c6e666d9092cf50806e8b271d9114f52e1375a7ab",
      "transactionType": "CALL",
      "contractName": null,
      "contractAddress": "0x08bbb4a9d79b8399852ce870a901577a939c9983",
      "function": "approve(address,uint256)",
      "arguments": [
        "0x920b806E40A00E02E7D2b94fFc89860fDaEd3640",
        "1000000000000000000"
      ],
      "transaction": {
        "from": "0xeccefbce887dbdc1c393a409baab153f3380a364",
        "to": "0x08bbb4a9d79b8399852ce870a901577a939c9983",
        "gas": "0xfb13",
        "value": "0x0",
        "input": "0x095ea7b3000000000000000000000000920b806e40a00e02e7d2b94ffc89860fdaed36400000000000000000000000000000000000000000000000000de0b6b3a7640000",
        "nonce": "0x1f",
        "chainId": "0x515"
      },
      "additionalContracts": [],
      "isFixedGasLimit": false
    },
    {
      "hash": "0x660c2a52ca34dd21137a158bbcf5e236f22775e60dd201fd8839aee760844da3",
      "transactionType": "CALL",
      "contractName": null,
      "contractAddress": "0x920b806e40a00e02e7d2b94ffc89860fdaed3640",
      "function": "swapExactTokensForETH(uint256,uint256,address[],address,uint256)",
      "arguments": [
        "1000000000000000000",
        "0",
        "[0x08bBB4a9D79b8399852cE870a901577a939c9983, 0x4200000000000000000000000000000000000006]",
        "0xECcEfbCE887DBdc1c393A409BaAb153F3380a364",
        "1770968072"
      ],
      "transaction": {
        "from": "0xeccefbce887dbdc1c393a409baab153f3380a364",
        "to": "0x920b806e40a00e02e7d2b94ffc89860fdaed3640",
        "gas": "0x25a7b",
        "value": "0x0",
        "input": "0x18cbafe50000000000000000000000000000000000000000000000000de0b6b3a7640000000000000000000000000000000000000000000000000000000000000000000000000000000000000000000000000000000000000000000000000000000000a0000000000000000000000000eccefbce887dbdc1c393a409baab153f3380a36400000000000000000000000000000000000000000000000000000000698ed408000000000000000000000000000000000000000000000000000000000000000200000000000000000000000008bbb4a9d79b8399852ce870a901577a939c99830000000000000000000000004200000000000000000000000000000000000006",
        "nonce": "0x20",
        "chainId": "0x515"
      },
      "additionalContracts": [],
      "isFixedGasLimit": false
    },
    {
      "hash": "0x2c95d7b44f8279a351b76638dd80fdc47f79c4fe8d6a2db72467c33a50dc7af4",
      "transactionType": "CALL",
      "contractName": null,
      "contractAddress": "0x920b806e40a00e02e7d2b94ffc89860fdaed3640",
      "function": "swapExactETHForTokens(uint256,address[],address,uint256)",
      "arguments": [
        "0",
        "[0x4200000000000000000000000000000000000006, 0x08bBB4a9D79b8399852cE870a901577a939c9983]",
        "0xECcEfbCE887DBdc1c393A409BaAb153F3380a364",
        "1770968072"
      ],
      "transaction": {
        "from": "0xeccefbce887dbdc1c393a409baab153f3380a364",
        "to": "0x920b806e40a00e02e7d2b94ffc89860fdaed3640",
        "gas": "0x1efba",
        "value": "0x5af3107a4000",
        "input": "0x7ff36ab500000000000000000000000000000000000000000000000000000000000000000000000000000000000000000000000000000000000000000000000000000080000000000000000000000000eccefbce887dbdc1c393a409baab153f3380a36400000000000000000000000000000000000000000000000000000000698ed4080000000000000000000000000000000000000000000000000000000000000002000000000000000000000000420000000000000000000000000000000000000600000000000000000000000008bbb4a9d79b8399852ce870a901577a939c9983",
        "nonce": "0x21",
        "chainId": "0x515"
      },
      "additionalContracts": [],
      "isFixedGasLimit": false
    },
    {
      "hash": "0x28f4055347b67a986e54bb3677f9af6c8dceed3669ae3c524d8ee3961180384b",
      "transactionType": "CALL",
      "contractName": null,
      "contractAddress": "0x08bbb4a9d79b8399852ce870a901577a939c9983",
      "function": "approve(address,uint256)",
      "arguments": [
        "0x920b806E40A00E02E7D2b94fFc89860fDaEd3640",
        "10000000000000000000"
      ],
      "transaction": {
        "from": "0xeccefbce887dbdc1c393a409baab153f3380a364",
        "to": "0x08bbb4a9d79b8399852ce870a901577a939c9983",
        "gas": "0xfb13",
        "value": "0x0",
        "input": "0x095ea7b3000000000000000000000000920b806e40a00e02e7d2b94ffc89860fdaed36400000000000000000000000000000000000000000000000008ac7230489e80000",
        "nonce": "0x22",
        "chainId": "0x515"
      },
      "additionalContracts": [],
      "isFixedGasLimit": false
    },
    {
      "hash": "0xbc3686a507ca9f4445b5a1c035547a456ff95d245b5a214ff538caad6cb1700b",
      "transactionType": "CALL",
      "contractName": null,
      "contractAddress": "0x920b806e40a00e02e7d2b94ffc89860fdaed3640",
      "function": "swapExactTokensForTokens(uint256,uint256,address[],address,uint256)",
      "arguments": [
        "10000000000000000000",
        "0",
        "[0x08bBB4a9D79b8399852cE870a901577a939c9983, 0x4200000000000000000000000000000000000006]",
        "0xECcEfbCE887DBdc1c393A409BaAb153F3380a364",
        "1770968072"
      ],
      "transaction": {
        "from": "0xeccefbce887dbdc1c393a409baab153f3380a364",
        "to": "0x920b806e40a00e02e7d2b94ffc89860fdaed3640",
        "gas": "0x252d6",
        "value": "0x0",
        "input": "0x38ed17390000000000000000000000000000000000000000000000008ac7230489e80000000000000000000000000000000000000000000000000000000000000000000000000000000000000000000000000000000000000000000000000000000000a0000000000000000000000000eccefbce887dbdc1c393a409baab153f3380a36400000000000000000000000000000000000000000000000000000000698ed408000000000000000000000000000000000000000000000000000000000000000200000000000000000000000008bbb4a9d79b8399852ce870a901577a939c99830000000000000000000000004200000000000000000000000000000000000006",
        "nonce": "0x23",
        "chainId": "0x515"
      },
      "additionalContracts": [],
      "isFixedGasLimit": false
    },
    {
      "hash": "0x03b1070f63a57f04f8e3d029d8c0edca5055265d4792b81368d420d39c65bbe6",
      "transactionType": "CALL",
      "contractName": null,
      "contractAddress": "0x4200000000000000000000000000000000000006",
      "function": "approve(address,uint256)",
      "arguments": [
        "0x920b806E40A00E02E7D2b94fFc89860fDaEd3640",
        "1000000000000"
      ],
      "transaction": {
        "from": "0xeccefbce887dbdc1c393a409baab153f3380a364",
        "to": "0x4200000000000000000000000000000000000006",
        "gas": "0x10787",
        "value": "0x0",
        "input": "0x095ea7b3000000000000000000000000920b806e40a00e02e7d2b94ffc89860fdaed3640000000000000000000000000000000000000000000000000000000e8d4a51000",
        "nonce": "0x24",
        "chainId": "0x515"
      },
      "additionalContracts": [],
      "isFixedGasLimit": false
    },
    {
      "hash": "0xab2ae154205fb8b2d15e976404e99206dc650880a47f7c27365528164edda18e",
      "transactionType": "CALL",
      "contractName": null,
      "contractAddress": "0x920b806e40a00e02e7d2b94ffc89860fdaed3640",
      "function": "swapExactTokensForTokens(uint256,uint256,address[],address,uint256)",
      "arguments": [
        "1000000000000",
        "0",
        "[0x4200000000000000000000000000000000000006, 0x08bBB4a9D79b8399852cE870a901577a939c9983]",
        "0xECcEfbCE887DBdc1c393A409BaAb153F3380a364",
        "1770968072"
      ],
      "transaction": {
        "from": "0xeccefbce887dbdc1c393a409baab153f3380a364",
        "to": "0x920b806e40a00e02e7d2b94ffc89860fdaed3640",
        "gas": "0x1d7af",
        "value": "0x0",
        "input": "0x38ed1739000000000000000000000000000000000000000000000000000000e8d4a51000000000000000000000000000000000000000000000000000000000000000000000000000000000000000000000000000000000000000000000000000000000a0000000000000000000000000eccefbce887dbdc1c393a409baab153f3380a36400000000000000000000000000000000000000000000000000000000698ed4080000000000000000000000000000000000000000000000000000000000000002000000000000000000000000420000000000000000000000000000000000000600000000000000000000000008bbb4a9d79b8399852ce870a901577a939c9983",
        "nonce": "0x25",
        "chainId": "0x515"
      },
      "additionalContracts": [],
      "isFixedGasLimit": false
    },
    {
      "hash": "0xaba51b2becb5d4d48eef2c5dcca4a54faaaecc335e00e530e898d9c0c8799c2e",
      "transactionType": "CALL",
      "contractName": null,
      "contractAddress": "0x255b030f3d2b8023c7acc11a5a25c768a4f99af4",
      "function": "approve(address,uint256)",
      "arguments": [
        "0x920b806E40A00E02E7D2b94fFc89860fDaEd3640",
        "1000000"
      ],
      "transaction": {
        "from": "0xeccefbce887dbdc1c393a409baab153f3380a364",
        "to": "0x255b030f3d2b8023c7acc11a5a25c768a4f99af4",
        "gas": "0x109a4",
        "value": "0x0",
        "input": "0x095ea7b3000000000000000000000000920b806e40a00e02e7d2b94ffc89860fdaed364000000000000000000000000000000000000000000000000000000000000f4240",
        "nonce": "0x26",
        "chainId": "0x515"
      },
      "additionalContracts": [],
      "isFixedGasLimit": false
    },
    {
      "hash": "0xa2bfa1714078e070cffdbaf7655ea96e0ce76ead94c38c9ed5fc35b5f6c98b6d",
      "transactionType": "CALL",
      "contractName": null,
      "contractAddress": "0x920b806e40a00e02e7d2b94ffc89860fdaed3640",
      "function": "swapExactTokensForTokens(uint256,uint256,address[],address,uint256)",
      "arguments": [
        "1000000",
        "0",
        "[0x255b030F3d2b8023C7aCc11A5A25C768a4F99Af4, 0x08bBB4a9D79b8399852cE870a901577a939c9983, 0x4200000000000000000000000000000000000006]",
        "0xECcEfbCE887DBdc1c393A409BaAb153F3380a364",
        "1770968072"
      ],
      "transaction": {
        "from": "0xeccefbce887dbdc1c393a409baab153f3380a364",
        "to": "0x920b806e40a00e02e7d2b94ffc89860fdaed3640",
        "gas": "0x2f75e",
        "value": "0x0",
        "input": "0x38ed173900000000000000000000000000000000000000000000000000000000000f4240000000000000000000000000000000000000000000000000000000000000000000000000000000000000000000000000000000000000000000000000000000a0000000000000000000000000eccefbce887dbdc1c393a409baab153f3380a36400000000000000000000000000000000000000000000000000000000698ed4080000000000000000000000000000000000000000000000000000000000000003000000000000000000000000255b030f3d2b8023c7acc11a5a25c768a4f99af400000000000000000000000008bbb4a9d79b8399852ce870a901577a939c99830000000000000000000000004200000000000000000000000000000000000006",
        "nonce": "0x27",
        "chainId": "0x515"
      },
      "additionalContracts": [],
      "isFixedGasLimit": false
    }
  ],
  "receipts": [
    {
      "status": "0x1",
      "cumulativeGasUsed": "0xe6d12",
      "logs": [
        {
          "address": "0x255b030f3d2b8023c7acc11a5a25c768a4f99af4",
          "topics": [
            "0x8c5be1e5ebec7d5bd14f71427d1e84f3dd0314c0f7b2291e5b200ac8c7c3b925",
            "0x000000000000000000000000eccefbce887dbdc1c393a409baab153f3380a364",
            "0x000000000000000000000000920b806e40a00e02e7d2b94ffc89860fdaed3640"
          ],
          "data": "0x00000000000000000000000000000000000000000000000000000000000f4240",
          "blockHash": "0x2c9ea29c1197c65f01fda20386089aa8855345a233bf17063fcfc5b479484d95",
          "blockNumber": "0x2a126a6",
          "blockTimestamp": "0x698ed3f2",
          "transactionHash": "0xab2ae154205fb8b2d15e976404e99206dc650880a47f7c27365528164edda18e",
          "transactionIndex": "0x6",
          "logIndex": "0xc",
          "removed": false
        }
      ],
      "logsBloom": "0x00000000000000000000000000000800000000000000000000000000000000000000000000000000000000000000000000000000000000000000000008200000000000000000000000000000000000000000000000000000000000000000000000000000000004000000000000000000000002000000000000000000000000000000000000000000000000004000000000000000000000000000000000000000020000000000000000000000000000000000000000000000000000000000000000000000000000000000000000000000000000000000000000000008000000100010000000000000000000000800000000000200000000000000000000000000",
      "type": "0x2",
      "transactionHash": "0xab2ae154205fb8b2d15e976404e99206dc650880a47f7c27365528164edda18e",
      "transactionIndex": "0x6",
      "blockHash": "0x2c9ea29c1197c65f01fda20386089aa8855345a233bf17063fcfc5b479484d95",
      "blockNumber": "0x2a126a6",
      "gasUsed": "0xb5a3",
      "effectiveGasPrice": "0x7a121",
      "blobGasUsed": "0x9c40",
      "from": "0xeccefbce887dbdc1c393a409baab153f3380a364",
      "to": "0x255b030f3d2b8023c7acc11a5a25c768a4f99af4",
      "contractAddress": null,
      "daFootprintGasScalar": "0x190",
      "l1BaseFeeScalar": "0x7d0",
      "l1BlobBaseFee": "0x1053babd",
      "l1BlobBaseFeeScalar": "0xdbba0",
      "l1Fee": "0x921a2c23e",
      "l1GasPrice": "0x10f4ff8b0",
      "l1GasUsed": "0x640"
    },
    {
      "status": "0x1",
      "cumulativeGasUsed": "0x10713c",
      "logs": [
        {
          "address": "0x255b030f3d2b8023c7acc11a5a25c768a4f99af4",
          "topics": [
            "0xddf252ad1be2c89b69c2b068fc378daa952ba7f163c4a11628f55a4df523b3ef",
            "0x000000000000000000000000eccefbce887dbdc1c393a409baab153f3380a364",
            "0x000000000000000000000000486c627015838998a04e7742399700ff50643656"
          ],
          "data": "0x00000000000000000000000000000000000000000000000000000000000f4240",
          "blockHash": "0x2c9ea29c1197c65f01fda20386089aa8855345a233bf17063fcfc5b479484d95",
          "blockNumber": "0x2a126a6",
          "blockTimestamp": "0x698ed3f2",
          "transactionHash": "0xe5c1f74ac6ff2ee181c344b1c1ac86a344d293eeee48c518085a5a80eaa29d90",
          "transactionIndex": "0x7",
          "logIndex": "0xd",
          "removed": false
        },
        {
          "address": "0x08bbb4a9d79b8399852ce870a901577a939c9983",
          "topics": [
            "0xddf252ad1be2c89b69c2b068fc378daa952ba7f163c4a11628f55a4df523b3ef",
            "0x000000000000000000000000486c627015838998a04e7742399700ff50643656",
            "0x000000000000000000000000eccefbce887dbdc1c393a409baab153f3380a364"
          ],
          "data": "0x0000000000000000000000000000000000000000000000000db317008968e0b2",
          "blockHash": "0x2c9ea29c1197c65f01fda20386089aa8855345a233bf17063fcfc5b479484d95",
          "blockNumber": "0x2a126a6",
          "blockTimestamp": "0x698ed3f2",
          "transactionHash": "0xe5c1f74ac6ff2ee181c344b1c1ac86a344d293eeee48c518085a5a80eaa29d90",
          "transactionIndex": "0x7",
          "logIndex": "0xe",
          "removed": false
        },
        {
          "address": "0x486c627015838998a04e7742399700ff50643656",
          "topics": [
            "0x1c411e9a96e071241c2f21f7726b17ae89e3cab4c78be50e062b03a9fffbbad1"
          ],
          "data": "0x0000000000000000000000000000000000000000000000055e14472cd9a71f4e0000000000000000000000000000000000000000000000000000000006052340",
          "blockHash": "0x2c9ea29c1197c65f01fda20386089aa8855345a233bf17063fcfc5b479484d95",
          "blockNumber": "0x2a126a6",
          "blockTimestamp": "0x698ed3f2",
          "transactionHash": "0xe5c1f74ac6ff2ee181c344b1c1ac86a344d293eeee48c518085a5a80eaa29d90",
          "transactionIndex": "0x7",
          "logIndex": "0xf",
          "removed": false
        },
        {
          "address": "0x486c627015838998a04e7742399700ff50643656",
          "topics": [
            "0xd78ad95fa46c994b6551d0da85fc275fe613ce37657fb8d5e3d130840159d822",
            "0x000000000000000000000000920b806e40a00e02e7d2b94ffc89860fdaed3640",
            "0x000000000000000000000000eccefbce887dbdc1c393a409baab153f3380a364"
          ],
          "data": "0x000000000000000000000000000000000000000000000000000000000000000000000000000000000000000000000000000000000000000000000000000f42400000000000000000000000000000000000000000000000000db317008968e0b20000000000000000000000000000000000000000000000000000000000000000",
          "blockHash": "0x2c9ea29c1197c65f01fda20386089aa8855345a233bf17063fcfc5b479484d95",
          "blockNumber": "0x2a126a6",
          "blockTimestamp": "0x698ed3f2",
          "transactionHash": "0xe5c1f74ac6ff2ee181c344b1c1ac86a344d293eeee48c518085a5a80eaa29d90",
          "transactionIndex": "0x7",
          "logIndex": "0x10",
          "removed": false
        }
      ],
      "logsBloom": "0x00200000000040000000000080000800000000000400000000000008000000000000000000000000000000000000000000000000000008000000000008000000000000000000000000000008000000200000000000000000000000000000002000002000000004000004000000000000000002000000000000000010000000000000000000000000000000004000000000000000000000080000004000000000000000000000000000000000000000000000000000000000000000000000000000000002000000000000000000000000000002000000001000000008000000100000000000000000000000000800800000000200000000000000000000000000",
      "type": "0x2",
      "transactionHash": "0xe5c1f74ac6ff2ee181c344b1c1ac86a344d293eeee48c518085a5a80eaa29d90",
      "transactionIndex": "0x7",
      "blockHash": "0x2c9ea29c1197c65f01fda20386089aa8855345a233bf17063fcfc5b479484d95",
      "blockNumber": "0x2a126a6",
      "gasUsed": "0x2042a",
      "effectiveGasPrice": "0x7a121",
      "blobGasUsed": "0xe290",
      "from": "0xeccefbce887dbdc1c393a409baab153f3380a364",
      "to": "0x920b806e40a00e02e7d2b94ffc89860fdaed3640",
      "contractAddress": null,
      "daFootprintGasScalar": "0x190",
      "l1BaseFeeScalar": "0x7d0",
      "l1BlobBaseFee": "0x1053babd",
      "l1BlobBaseFeeScalar": "0xdbba0",
      "l1Fee": "0xd4c39fcdb",
      "l1GasPrice": "0x10f4ff8b0",
      "l1GasUsed": "0x91a"
    },
    {
      "status": "0x1",
      "cumulativeGasUsed": "0x112703",
      "logs": [
        {
          "address": "0x08bbb4a9d79b8399852ce870a901577a939c9983",
          "topics": [
            "0x8c5be1e5ebec7d5bd14f71427d1e84f3dd0314c0f7b2291e5b200ac8c7c3b925",
            "0x000000000000000000000000eccefbce887dbdc1c393a409baab153f3380a364",
            "0x000000000000000000000000920b806e40a00e02e7d2b94ffc89860fdaed3640"
          ],
          "data": "0x0000000000000000000000000000000000000000000000000de0b6b3a7640000",
          "blockHash": "0x2c9ea29c1197c65f01fda20386089aa8855345a233bf17063fcfc5b479484d95",
          "blockNumber": "0x2a126a6",
          "blockTimestamp": "0x698ed3f2",
          "transactionHash": "0x5ffab74602231391767a5422e335d8df9792e7c5e6d699e212300c890debfa9e",
          "transactionIndex": "0x8",
          "logIndex": "0x11",
          "removed": false
        }
      ],
      "logsBloom": "0x00000000000040000000000000000800000000000000000000000000000000000000000000000000000000000000000000000000000000000000000000200000000000000000000000000000000000000000000000000000000000000000000000002000000004000000000000000000000002000000000000000000000000000000000000000000000000004000000000000000000000000000000000000000020000000000000000000000000000000000000000000000000000000000000000000000000000000000000000000000000000000000000000000008000000000010000000000000000000000000800000000200000000000000000000000000",
      "type": "0x2",
      "transactionHash": "0x5ffab74602231391767a5422e335d8df9792e7c5e6d699e212300c890debfa9e",
      "transactionIndex": "0x8",
      "blockHash": "0x2c9ea29c1197c65f01fda20386089aa8855345a233bf17063fcfc5b479484d95",
      "blockNumber": "0x2a126a6",
      "gasUsed": "0xb5c7",
      "effectiveGasPrice": "0x7a121",
      "blobGasUsed": "0x9c40",
      "from": "0xeccefbce887dbdc1c393a409baab153f3380a364",
      "to": "0x08bbb4a9d79b8399852ce870a901577a939c9983",
      "contractAddress": null,
      "daFootprintGasScalar": "0x190",
      "l1BaseFeeScalar": "0x7d0",
      "l1BlobBaseFee": "0x1053babd",
      "l1BlobBaseFeeScalar": "0xdbba0",
      "l1Fee": "0x921a2c23e",
      "l1GasPrice": "0x10f4ff8b0",
      "l1GasUsed": "0x640"
    },
    {
      "status": "0x1",
      "cumulativeGasUsed": "0x127cc3",
      "logs": [
        {
          "address": "0x08bbb4a9d79b8399852ce870a901577a939c9983",
          "topics": [
            "0xddf252ad1be2c89b69c2b068fc378daa952ba7f163c4a11628f55a4df523b3ef",
            "0x000000000000000000000000eccefbce887dbdc1c393a409baab153f3380a364",
            "0x000000000000000000000000486c627015838998a04e7742399700ff50643656"
          ],
          "data": "0x0000000000000000000000000000000000000000000000000de0b6b3a7640000",
          "blockHash": "0x2c9ea29c1197c65f01fda20386089aa8855345a233bf17063fcfc5b479484d95",
          "blockNumber": "0x2a126a6",
          "blockTimestamp": "0x698ed3f2",
          "transactionHash": "0xa2bfa1714078e070cffdbaf7655ea96e0ce76ead94c38c9ed5fc35b5f6c98b6d",
          "transactionIndex": "0x9",
          "logIndex": "0x12",
          "removed": false
        },
        {
          "address": "0x255b030f3d2b8023c7acc11a5a25c768a4f99af4",
          "topics": [
            "0xddf252ad1be2c89b69c2b068fc378daa952ba7f163c4a11628f55a4df523b3ef",
            "0x000000000000000000000000486c627015838998a04e7742399700ff50643656",
            "0x000000000000000000000000eccefbce887dbdc1c393a409baab153f3380a364"
          ],
          "data": "0x00000000000000000000000000000000000000000000000000000000000f5d16",
          "blockHash": "0x2c9ea29c1197c65f01fda20386089aa8855345a233bf17063fcfc5b479484d95",
          "blockNumber": "0x2a126a6",
          "blockTimestamp": "0x698ed3f2",
          "transactionHash": "0xa2bfa1714078e070cffdbaf7655ea96e0ce76ead94c38c9ed5fc35b5f6c98b6d",
          "transactionIndex": "0x9",
          "logIndex": "0x13",
          "removed": false
        },
        {
          "address": "0x486c627015838998a04e7742399700ff50643656",
          "topics": [
            "0x1c411e9a96e071241c2f21f7726b17ae89e3cab4c78be50e062b03a9fffbbad1"
          ],
          "data": "0x0000000000000000000000000000000000000000000000056bf4fde0810b1f4e0000000000000000000000000000000000000000000000000000000005f5c62a",
          "blockHash": "0x2c9ea29c1197c65f01fda20386089aa8855345a233bf17063fcfc5b479484d95",
          "blockNumber": "0x2a126a6",
          "blockTimestamp": "0x698ed3f2",
          "transactionHash": "0xa2bfa1714078e070cffdbaf7655ea96e0ce76ead94c38c9ed5fc35b5f6c98b6d",
          "transactionIndex": "0x9",
          "logIndex": "0x14",
          "removed": false
        },
        {
          "address": "0x486c627015838998a04e7742399700ff50643656",
          "topics": [
            "0xd78ad95fa46c994b6551d0da85fc275fe613ce37657fb8d5e3d130840159d822",
            "0x000000000000000000000000920b806e40a00e02e7d2b94ffc89860fdaed3640",
            "0x000000000000000000000000eccefbce887dbdc1c393a409baab153f3380a364"
          ],
          "data": "0x0000000000000000000000000000000000000000000000000de0b6b3a76400000000000000000000000000000000000000000000000000000000000000000000000000000000000000000000000000000000000000000000000000000000000000000000000000000000000000000000000000000000000000000000000f5d16",
          "blockHash": "0x2c9ea29c1197c65f01fda20386089aa8855345a233bf17063fcfc5b479484d95",
          "blockNumber": "0x2a126a6",
          "blockTimestamp": "0x698ed3f2",
          "transactionHash": "0xa2bfa1714078e070cffdbaf7655ea96e0ce76ead94c38c9ed5fc35b5f6c98b6d",
          "transactionIndex": "0x9",
          "logIndex": "0x15",
          "removed": false
        }
      ],
      "logsBloom": "0x00200000000040000000000080000800000000000400000000000008000000000000000000000000000000000000000000000000000008000000000008000000000000000000000000000008000000200000000000000000000000000000002000002000000004000004000000000000000002000000000000000010000000000000000000000000000000004000000000000000000000080000004000000000000000000000000000000000000000000000000000000000000000000000000000000002000000000000000000000000000002000000001000000008000000100000000000000000000000000800800000000200000000000000000000000000",
      "type": "0x2",
      "transactionHash": "0xa2bfa1714078e070cffdbaf7655ea96e0ce76ead94c38c9ed5fc35b5f6c98b6d",
      "transactionIndex": "0x9",
      "blockHash": "0x2c9ea29c1197c65f01fda20386089aa8855345a233bf17063fcfc5b479484d95",
      "blockNumber": "0x2a126a6",
      "gasUsed": "0x155c0",
      "effectiveGasPrice": "0x7a121",
      "blobGasUsed": "0xe100",
      "from": "0xeccefbce887dbdc1c393a409baab153f3380a364",
      "to": "0x920b806e40a00e02e7d2b94ffc89860fdaed3640",
      "contractAddress": null,
      "daFootprintGasScalar": "0x190",
      "l1BaseFeeScalar": "0x7d0",
      "l1BlobBaseFee": "0x1053babd",
      "l1BlobBaseFeeScalar": "0xdbba0",
      "l1Fee": "0xd38ac14ba",
      "l1GasPrice": "0x10f4ff8b0",
      "l1GasUsed": "0x90c"
    },
    {
      "status": "0x1",
      "cumulativeGasUsed": "0x13328a",
      "logs": [
        {
          "address": "0x08bbb4a9d79b8399852ce870a901577a939c9983",
          "topics": [
            "0x8c5be1e5ebec7d5bd14f71427d1e84f3dd0314c0f7b2291e5b200ac8c7c3b925",
            "0x000000000000000000000000eccefbce887dbdc1c393a409baab153f3380a364",
            "0x000000000000000000000000920b806e40a00e02e7d2b94ffc89860fdaed3640"
          ],
          "data": "0x0000000000000000000000000000000000000000000000000de0b6b3a7640000",
          "blockHash": "0x2c9ea29c1197c65f01fda20386089aa8855345a233bf17063fcfc5b479484d95",
          "blockNumber": "0x2a126a6",
          "blockTimestamp": "0x698ed3f2",
          "transactionHash": "0xbc3686a507ca9f4445b5a1c035547a456ff95d245b5a214ff538caad6cb1700b",
          "transactionIndex": "0xa",
          "logIndex": "0x16",
          "removed": false
        }
      ],
      "logsBloom": "0x00000000000040000000000000000800000000000000000000000000000000000000000000000000000000000000000000000000000000000000000000200000000000000000000000000000000000000000000000000000000000000000000000002000000004000000000000000000000002000000000000000000000000000000000000000000000000004000000000000000000000000000000000000000020000000000000000000000000000000000000000000000000000000000000000000000000000000000000000000000000000000000000000000008000000000010000000000000000000000000800000000200000000000000000000000000",
      "type": "0x2",
      "transactionHash": "0xbc3686a507ca9f4445b5a1c035547a456ff95d245b5a214ff538caad6cb1700b",
      "transactionIndex": "0xa",
      "blockHash": "0x2c9ea29c1197c65f01fda20386089aa8855345a233bf17063fcfc5b479484d95",
      "blockNumber": "0x2a126a6",
      "gasUsed": "0xb5c7",
      "effectiveGasPrice": "0x7a121",
      "blobGasUsed": "0x9c40",
      "from": "0xeccefbce887dbdc1c393a409baab153f3380a364",
      "to": "0x08bbb4a9d79b8399852ce870a901577a939c9983",
      "contractAddress": null,
      "daFootprintGasScalar": "0x190",
      "l1BaseFeeScalar": "0x7d0",
      "l1BlobBaseFee": "0x1053babd",
      "l1BlobBaseFeeScalar": "0xdbba0",
      "l1Fee": "0x921a2c23e",
      "l1GasPrice": "0x10f4ff8b0",
      "l1GasUsed": "0x640"
    },
    {
      "status": "0x1",
      "cumulativeGasUsed": "0x14e6ba",
      "logs": [
        {
          "address": "0x08bbb4a9d79b8399852ce870a901577a939c9983",
          "topics": [
            "0xddf252ad1be2c89b69c2b068fc378daa952ba7f163c4a11628f55a4df523b3ef",
            "0x000000000000000000000000eccefbce887dbdc1c393a409baab153f3380a364",
            "0x000000000000000000000000be597ef10f90a3eaf02c380e05aa1e75ad293d69"
          ],
          "data": "0x0000000000000000000000000000000000000000000000000de0b6b3a7640000",
          "blockHash": "0x2c9ea29c1197c65f01fda20386089aa8855345a233bf17063fcfc5b479484d95",
          "blockNumber": "0x2a126a6",
          "blockTimestamp": "0x698ed3f2",
          "transactionHash": "0x2c95d7b44f8279a351b76638dd80fdc47f79c4fe8d6a2db72467c33a50dc7af4",
          "transactionIndex": "0xb",
          "logIndex": "0x17",
          "removed": false
        },
        {
          "address": "0x4200000000000000000000000000000000000006",
          "topics": [
            "0xddf252ad1be2c89b69c2b068fc378daa952ba7f163c4a11628f55a4df523b3ef",
            "0x000000000000000000000000be597ef10f90a3eaf02c380e05aa1e75ad293d69",
            "0x000000000000000000000000920b806e40a00e02e7d2b94ffc89860fdaed3640"
          ],
          "data": "0x000000000000000000000000000000000000000000000000000000e5d73437dd",
          "blockHash": "0x2c9ea29c1197c65f01fda20386089aa8855345a233bf17063fcfc5b479484d95",
          "blockNumber": "0x2a126a6",
          "blockTimestamp": "0x698ed3f2",
          "transactionHash": "0x2c95d7b44f8279a351b76638dd80fdc47f79c4fe8d6a2db72467c33a50dc7af4",
          "transactionIndex": "0xb",
          "logIndex": "0x18",
          "removed": false
        },
        {
          "address": "0xbe597ef10f90a3eaf02c380e05aa1e75ad293d69",
          "topics": [
            "0x1c411e9a96e071241c2f21f7726b17ae89e3cab4c78be50e062b03a9fffbbad1"
          ],
          "data": "0x00000000000000000000000000000000000000000000000579a814e10a74000000000000000000000000000000000000000000000000000000005a0d39460823",
          "blockHash": "0x2c9ea29c1197c65f01fda20386089aa8855345a233bf17063fcfc5b479484d95",
          "blockNumber": "0x2a126a6",
          "blockTimestamp": "0x698ed3f2",
          "transactionHash": "0x2c95d7b44f8279a351b76638dd80fdc47f79c4fe8d6a2db72467c33a50dc7af4",
          "transactionIndex": "0xb",
          "logIndex": "0x19",
          "removed": false
        },
        {
          "address": "0xbe597ef10f90a3eaf02c380e05aa1e75ad293d69",
          "topics": [
            "0xd78ad95fa46c994b6551d0da85fc275fe613ce37657fb8d5e3d130840159d822",
            "0x000000000000000000000000920b806e40a00e02e7d2b94ffc89860fdaed3640",
            "0x000000000000000000000000920b806e40a00e02e7d2b94ffc89860fdaed3640"
          ],
          "data": "0x0000000000000000000000000000000000000000000000000de0b6b3a764000000000000000000000000000000000000000000000000000000000000000000000000000000000000000000000000000000000000000000000000000000000000000000000000000000000000000000000000000000000000000000e5d73437dd",
          "blockHash": "0x2c9ea29c1197c65f01fda20386089aa8855345a233bf17063fcfc5b479484d95",
          "blockNumber": "0x2a126a6",
          "blockTimestamp": "0x698ed3f2",
          "transactionHash": "0x2c95d7b44f8279a351b76638dd80fdc47f79c4fe8d6a2db72467c33a50dc7af4",
          "transactionIndex": "0xb",
          "logIndex": "0x1a",
          "removed": false
        },
        {
          "address": "0x4200000000000000000000000000000000000006",
          "topics": [
            "0x7fcf532c15f0a6db0bd6d0e038bea71d30d808c7d98cb3bf7268a95bf5081b65",
            "0x000000000000000000000000920b806e40a00e02e7d2b94ffc89860fdaed3640"
          ],
          "data": "0x000000000000000000000000000000000000000000000000000000e5d73437dd",
          "blockHash": "0x2c9ea29c1197c65f01fda20386089aa8855345a233bf17063fcfc5b479484d95",
          "blockNumber": "0x2a126a6",
          "blockTimestamp": "0x698ed3f2",
          "transactionHash": "0x2c95d7b44f8279a351b76638dd80fdc47f79c4fe8d6a2db72467c33a50dc7af4",
          "transactionIndex": "0xb",
          "logIndex": "0x1b",
          "removed": false
        }
      ],
      "logsBloom": "0x0020000000004000000000008000080000000000000000000006000000000000000000004000000000000010000000000000000000000000000080000000000000000000000000000000000800000020000000000040100000000000000000000000200000000400000000000000000000000200000004000000001000000000000000000000000000000000400000000000000000200008000000400000000000000000000000000000008000000000000000000000000000000000000000000000000200000000000000000000000000000000000000100000000a000000000000000400000000000000000000800000000200000000000000000000000000",
      "type": "0x2",
      "transactionHash": "0x2c95d7b44f8279a351b76638dd80fdc47f79c4fe8d6a2db72467c33a50dc7af4",
      "transactionIndex": "0xb",
      "blockHash": "0x2c9ea29c1197c65f01fda20386089aa8855345a233bf17063fcfc5b479484d95",
      "blockNumber": "0x2a126a6",
      "gasUsed": "0x1b430",
      "effectiveGasPrice": "0x7a121",
      "blobGasUsed": "0xd160",
      "from": "0xeccefbce887dbdc1c393a409baab153f3380a364",
      "to": "0x920b806e40a00e02e7d2b94ffc89860fdaed3640",
      "contractAddress": null,
      "daFootprintGasScalar": "0x190",
      "l1BaseFeeScalar": "0x7d0",
      "l1BlobBaseFee": "0x1053babd",
      "l1BlobBaseFeeScalar": "0xdbba0",
      "l1Fee": "0xc4e05332b",
      "l1GasPrice": "0x10f4ff8b0",
      "l1GasUsed": "0x86c"
    },
    {
      "status": "0x1",
      "cumulativeGasUsed": "0x164da0",
      "logs": [
        {
          "address": "0x4200000000000000000000000000000000000006",
          "topics": [
            "0xe1fffcc4923d04b559f4d29a8bfc6cda04eb5b0d3c460751c2402c5c5cc9109c",
            "0x000000000000000000000000920b806e40a00e02e7d2b94ffc89860fdaed3640"
          ],
          "data": "0x00000000000000000000000000000000000000000000000000005af3107a4000",
          "blockHash": "0x2c9ea29c1197c65f01fda20386089aa8855345a233bf17063fcfc5b479484d95",
          "blockNumber": "0x2a126a6",
          "blockTimestamp": "0x698ed3f2",
          "transactionHash": "0xe97b2e0d7abe304247b55c64ab5dd2b78d6b1aaa65a075d441a8ca31f705eb32",
          "transactionIndex": "0xc",
          "logIndex": "0x1c",
          "removed": false
        },
        {
          "address": "0x4200000000000000000000000000000000000006",
          "topics": [
            "0xddf252ad1be2c89b69c2b068fc378daa952ba7f163c4a11628f55a4df523b3ef",
            "0x000000000000000000000000920b806e40a00e02e7d2b94ffc89860fdaed3640",
            "0x000000000000000000000000be597ef10f90a3eaf02c380e05aa1e75ad293d69"
          ],
          "data": "0x00000000000000000000000000000000000000000000000000005af3107a4000",
          "blockHash": "0x2c9ea29c1197c65f01fda20386089aa8855345a233bf17063fcfc5b479484d95",
          "blockNumber": "0x2a126a6",
          "blockTimestamp": "0x698ed3f2",
          "transactionHash": "0xe97b2e0d7abe304247b55c64ab5dd2b78d6b1aaa65a075d441a8ca31f705eb32",
          "transactionIndex": "0xc",
          "logIndex": "0x1d",
          "removed": false
        },
        {
          "address": "0x08bbb4a9d79b8399852ce870a901577a939c9983",
          "topics": [
            "0xddf252ad1be2c89b69c2b068fc378daa952ba7f163c4a11628f55a4df523b3ef",
            "0x000000000000000000000000be597ef10f90a3eaf02c380e05aa1e75ad293d69",
            "0x000000000000000000000000eccefbce887dbdc1c393a409baab153f3380a364"
          ],
          "data": "0x000000000000000000000000000000000000000000000002bf4074ad1dd0f3b1",
          "blockHash": "0x2c9ea29c1197c65f01fda20386089aa8855345a233bf17063fcfc5b479484d95",
          "blockNumber": "0x2a126a6",
          "blockTimestamp": "0x698ed3f2",
          "transactionHash": "0xe97b2e0d7abe304247b55c64ab5dd2b78d6b1aaa65a075d441a8ca31f705eb32",
          "transactionIndex": "0xc",
          "logIndex": "0x1e",
          "removed": false
        },
        {
          "address": "0xbe597ef10f90a3eaf02c380e05aa1e75ad293d69",
          "topics": [
            "0x1c411e9a96e071241c2f21f7726b17ae89e3cab4c78be50e062b03a9fffbbad1"
          ],
          "data": "0x000000000000000000000000000000000000000000000002ba67a033eca30c4f0000000000000000000000000000000000000000000000000000b50049c04823",
          "blockHash": "0x2c9ea29c1197c65f01fda20386089aa8855345a233bf17063fcfc5b479484d95",
          "blockNumber": "0x2a126a6",
          "blockTimestamp": "0x698ed3f2",
          "transactionHash": "0xe97b2e0d7abe304247b55c64ab5dd2b78d6b1aaa65a075d441a8ca31f705eb32",
          "transactionIndex": "0xc",
          "logIndex": "0x1f",
          "removed": false
        },
        {
          "address": "0xbe597ef10f90a3eaf02c380e05aa1e75ad293d69",
          "topics": [
            "0xd78ad95fa46c994b6551d0da85fc275fe613ce37657fb8d5e3d130840159d822",
            "0x000000000000000000000000920b806e40a00e02e7d2b94ffc89860fdaed3640",
            "0x000000000000000000000000eccefbce887dbdc1c393a409baab153f3380a364"
          ],
          "data": "0x000000000000000000000000000000000000000000000000000000000000000000000000000000000000000000000000000000000000000000005af3107a4000000000000000000000000000000000000000000000000002bf4074ad1dd0f3b10000000000000000000000000000000000000000000000000000000000000000",
          "blockHash": "0x2c9ea29c1197c65f01fda20386089aa8855345a233bf17063fcfc5b479484d95",
          "blockNumber": "0x2a126a6",
          "blockTimestamp": "0x698ed3f2",
          "transactionHash": "0xe97b2e0d7abe304247b55c64ab5dd2b78d6b1aaa65a075d441a8ca31f705eb32",
          "transactionIndex": "0xc",
          "logIndex": "0x20",
          "removed": false
        }
      ],
      "logsBloom": "0x00200000000040000000000080000800000000000000000000060000000000000000000040000000000000100000000000000000000000000000800000000000000000000000000000000008000000200000000000001000000000008000000000002000000004000000000000000000000002000000000000000010000000000000000000000000000000004000000000000001002000080000004000000000000000000000000000000080000000000000000000000000000000000000000000000002000000000000000000000000000000000000001000000008000000000000000400000000000000000000800000000200000000400000000000000000",
      "type": "0x2",
      "transactionHash": "0xe97b2e0d7abe304247b55c64ab5dd2b78d6b1aaa65a075d441a8ca31f705eb32",
      "transactionIndex": "0xc",
      "blockHash": "0x2c9ea29c1197c65f01fda20386089aa8855345a233bf17063fcfc5b479484d95",
      "blockNumber": "0x2a126a6",
      "gasUsed": "0x166e6",
      "effectiveGasPrice": "0x7a121",
      "blobGasUsed": "0xce40",
      "from": "0xeccefbce887dbdc1c393a409baab153f3380a364",
      "to": "0x920b806e40a00e02e7d2b94ffc89860fdaed3640",
      "contractAddress": null,
      "daFootprintGasScalar": "0x190",
      "l1BaseFeeScalar": "0x7d0",
      "l1BlobBaseFee": "0x1053babd",
      "l1BlobBaseFeeScalar": "0xdbba0",
      "l1Fee": "0xc135b7ac7",
      "l1GasPrice": "0x10f4ff8b0",
      "l1GasUsed": "0x843"
    },
    {
      "status": "0x1",
      "cumulativeGasUsed": "0x170367",
      "logs": [
        {
          "address": "0x08bbb4a9d79b8399852ce870a901577a939c9983",
          "topics": [
            "0x8c5be1e5ebec7d5bd14f71427d1e84f3dd0314c0f7b2291e5b200ac8c7c3b925",
            "0x000000000000000000000000eccefbce887dbdc1c393a409baab153f3380a364",
            "0x000000000000000000000000920b806e40a00e02e7d2b94ffc89860fdaed3640"
          ],
          "data": "0x0000000000000000000000000000000000000000000000008ac7230489e80000",
          "blockHash": "0x2c9ea29c1197c65f01fda20386089aa8855345a233bf17063fcfc5b479484d95",
          "blockNumber": "0x2a126a6",
          "blockTimestamp": "0x698ed3f2",
          "transactionHash": "0x660c2a52ca34dd21137a158bbcf5e236f22775e60dd201fd8839aee760844da3",
          "transactionIndex": "0xd",
          "logIndex": "0x21",
          "removed": false
        }
      ],
      "logsBloom": "0x00000000000040000000000000000800000000000000000000000000000000000000000000000000000000000000000000000000000000000000000000200000000000000000000000000000000000000000000000000000000000000000000000002000000004000000000000000000000002000000000000000000000000000000000000000000000000004000000000000000000000000000000000000000020000000000000000000000000000000000000000000000000000000000000000000000000000000000000000000000000000000000000000000008000000000010000000000000000000000000800000000200000000000000000000000000",
      "type": "0x2",
      "transactionHash": "0x660c2a52ca34dd21137a158bbcf5e236f22775e60dd201fd8839aee760844da3",
      "transactionIndex": "0xd",
      "blockHash": "0x2c9ea29c1197c65f01fda20386089aa8855345a233bf17063fcfc5b479484d95",
      "blockNumber": "0x2a126a6",
      "gasUsed": "0xb5c7",
      "effectiveGasPrice": "0x7a121",
      "blobGasUsed": "0x9c40",
      "from": "0xeccefbce887dbdc1c393a409baab153f3380a364",
      "to": "0x08bbb4a9d79b8399852ce870a901577a939c9983",
      "contractAddress": null,
      "daFootprintGasScalar": "0x190",
      "l1BaseFeeScalar": "0x7d0",
      "l1BlobBaseFee": "0x1053babd",
      "l1BlobBaseFeeScalar": "0xdbba0",
      "l1Fee": "0x921a2c23e",
      "l1GasPrice": "0x10f4ff8b0",
      "l1GasUsed": "0x640"
    },
    {
      "status": "0x1",
      "cumulativeGasUsed": "0x189a21",
      "logs": [
        {
          "address": "0x08bbb4a9d79b8399852ce870a901577a939c9983",
          "topics": [
            "0xddf252ad1be2c89b69c2b068fc378daa952ba7f163c4a11628f55a4df523b3ef",
            "0x000000000000000000000000eccefbce887dbdc1c393a409baab153f3380a364",
            "0x000000000000000000000000be597ef10f90a3eaf02c380e05aa1e75ad293d69"
          ],
          "data": "0x0000000000000000000000000000000000000000000000008ac7230489e80000",
          "blockHash": "0x2c9ea29c1197c65f01fda20386089aa8855345a233bf17063fcfc5b479484d95",
          "blockNumber": "0x2a126a6",
          "blockTimestamp": "0x698ed3f2",
          "transactionHash": "0x089771b6ee40f27aa98a6f961e5c95d6cc03a090f6a809ba4e77e7b04e61b0c1",
          "transactionIndex": "0xe",
          "logIndex": "0x22",
          "removed": false
        },
        {
          "address": "0x4200000000000000000000000000000000000006",
          "topics": [
            "0xddf252ad1be2c89b69c2b068fc378daa952ba7f163c4a11628f55a4df523b3ef",
            "0x000000000000000000000000be597ef10f90a3eaf02c380e05aa1e75ad293d69",
            "0x000000000000000000000000eccefbce887dbdc1c393a409baab153f3380a364"
          ],
          "data": "0x00000000000000000000000000000000000000000000000000001dedd42c0579",
          "blockHash": "0x2c9ea29c1197c65f01fda20386089aa8855345a233bf17063fcfc5b479484d95",
          "blockNumber": "0x2a126a6",
          "blockTimestamp": "0x698ed3f2",
          "transactionHash": "0x089771b6ee40f27aa98a6f961e5c95d6cc03a090f6a809ba4e77e7b04e61b0c1",
          "transactionIndex": "0xe",
          "logIndex": "0x23",
          "removed": false
        },
        {
          "address": "0xbe597ef10f90a3eaf02c380e05aa1e75ad293d69",
          "topics": [
            "0x1c411e9a96e071241c2f21f7726b17ae89e3cab4c78be50e062b03a9fffbbad1"
          ],
          "data": "0x000000000000000000000000000000000000000000000003452ec338768b0c4f00000000000000000000000000000000000000000000000000009712759442aa",
          "blockHash": "0x2c9ea29c1197c65f01fda20386089aa8855345a233bf17063fcfc5b479484d95",
          "blockNumber": "0x2a126a6",
          "blockTimestamp": "0x698ed3f2",
          "transactionHash": "0x089771b6ee40f27aa98a6f961e5c95d6cc03a090f6a809ba4e77e7b04e61b0c1",
          "transactionIndex": "0xe",
          "logIndex": "0x24",
          "removed": false
        },
        {
          "address": "0xbe597ef10f90a3eaf02c380e05aa1e75ad293d69",
          "topics": [
            "0xd78ad95fa46c994b6551d0da85fc275fe613ce37657fb8d5e3d130840159d822",
            "0x000000000000000000000000920b806e40a00e02e7d2b94ffc89860fdaed3640",
            "0x000000000000000000000000eccefbce887dbdc1c393a409baab153f3380a364"
          ],
          "data": "0x0000000000000000000000000000000000000000000000008ac7230489e800000000000000000000000000000000000000000000000000000000000000000000000000000000000000000000000000000000000000000000000000000000000000000000000000000000000000000000000000000000000000001dedd42c0579",
          "blockHash": "0x2c9ea29c1197c65f01fda20386089aa8855345a233bf17063fcfc5b479484d95",
          "blockNumber": "0x2a126a6",
          "blockTimestamp": "0x698ed3f2",
          "transactionHash": "0x089771b6ee40f27aa98a6f961e5c95d6cc03a090f6a809ba4e77e7b04e61b0c1",
          "transactionIndex": "0xe",
          "logIndex": "0x25",
          "removed": false
        }
      ],
      "logsBloom": "0x00200000000040000000000080000800000000000000000000060000000000000000000040000000000000100000000000000000000000000000800000000000000000000000000000000008000000200000000000001000000000000000000000002000000004000000000000000000000002000000000000000010000000000000000000000000000000004000000000000000002000080000004000000000000000000000000000000080000000000000000000000000000000000000000000000002000000000000000000000000000000000000001000000008000000000000000400000000000000000000800000000200000000000000000000000000",
      "type": "0x2",
      "transactionHash": "0x089771b6ee40f27aa98a6f961e5c95d6cc03a090f6a809ba4e77e7b04e61b0c1",
      "transactionIndex": "0xe",
      "blockHash": "0x2c9ea29c1197c65f01fda20386089aa8855345a233bf17063fcfc5b479484d95",
      "blockNumber": "0x2a126a6",
      "gasUsed": "0x196ba",
      "effectiveGasPrice": "0x7a121",
      "blobGasUsed": "0xd7a0",
      "from": "0xeccefbce887dbdc1c393a409baab153f3380a364",
      "to": "0x920b806e40a00e02e7d2b94ffc89860fdaed3640",
      "contractAddress": null,
      "daFootprintGasScalar": "0x190",
      "l1BaseFeeScalar": "0x7d0",
      "l1BlobBaseFee": "0x1053babd",
      "l1BlobBaseFeeScalar": "0xdbba0",
      "l1Fee": "0xc9c3cd3b0",
      "l1GasPrice": "0x10f4ff8b0",
      "l1GasUsed": "0x8a1"
    },
    {
      "status": "0x1",
      "cumulativeGasUsed": "0x194e52",
      "logs": [
        {
          "address": "0x4200000000000000000000000000000000000006",
          "topics": [
            "0x8c5be1e5ebec7d5bd14f71427d1e84f3dd0314c0f7b2291e5b200ac8c7c3b925",
            "0x000000000000000000000000eccefbce887dbdc1c393a409baab153f3380a364",
            "0x000000000000000000000000920b806e40a00e02e7d2b94ffc89860fdaed3640"
          ],
          "data": "0x000000000000000000000000000000000000000000000000000000e8d4a51000",
          "blockHash": "0x2c9ea29c1197c65f01fda20386089aa8855345a233bf17063fcfc5b479484d95",
          "blockNumber": "0x2a126a6",
          "blockTimestamp": "0x698ed3f2",
          "transactionHash": "0x28f4055347b67a986e54bb3677f9af6c8dceed3669ae3c524d8ee3961180384b",
          "transactionIndex": "0xf",
          "logIndex": "0x26",
          "removed": false
        }
      ],
      "logsBloom": "0x00000000000000000000000000000800000000000000000000040000000000000000000000000000000000100000000000000000000000000000000000200000000000000000000000000000000000000000000000000000000000000000000000000000000004000000000000000000000002000000000000000000000000000000000000000000000000004000000000000000002000000000000000000000020000000000000000000000000000000000000000000000000000000000000000000000000000000000000000000000000000000000000000000008000000000010000000000000000000000000000000000200000000000000000000000000",
      "type": "0x2",
      "transactionHash": "0x28f4055347b67a986e54bb3677f9af6c8dceed3669ae3c524d8ee3961180384b",
      "transactionIndex": "0xf",
      "blockHash": "0x2c9ea29c1197c65f01fda20386089aa8855345a233bf17063fcfc5b479484d95",
      "blockNumber": "0x2a126a6",
      "gasUsed": "0xb431",
      "effectiveGasPrice": "0x7a121",
      "blobGasUsed": "0x9c40",
      "from": "0xeccefbce887dbdc1c393a409baab153f3380a364",
      "to": "0x4200000000000000000000000000000000000006",
      "contractAddress": null,
      "daFootprintGasScalar": "0x190",
      "l1BaseFeeScalar": "0x7d0",
      "l1BlobBaseFee": "0x1053babd",
      "l1BlobBaseFeeScalar": "0xdbba0",
      "l1Fee": "0x921a2c23e",
      "l1GasPrice": "0x10f4ff8b0",
      "l1GasUsed": "0x640"
    },
    {
      "status": "0x1",
      "cumulativeGasUsed": "0x1aa3d1",
      "logs": [
        {
          "address": "0x4200000000000000000000000000000000000006",
          "topics": [
            "0xddf252ad1be2c89b69c2b068fc378daa952ba7f163c4a11628f55a4df523b3ef",
            "0x000000000000000000000000eccefbce887dbdc1c393a409baab153f3380a364",
            "0x000000000000000000000000be597ef10f90a3eaf02c380e05aa1e75ad293d69"
          ],
          "data": "0x000000000000000000000000000000000000000000000000000000e8d4a51000",
          "blockHash": "0x2c9ea29c1197c65f01fda20386089aa8855345a233bf17063fcfc5b479484d95",
          "blockNumber": "0x2a126a6",
          "blockTimestamp": "0x698ed3f2",
          "transactionHash": "0x893c4c809b010e1d4070326c6e666d9092cf50806e8b271d9114f52e1375a7ab",
          "transactionIndex": "0x10",
          "logIndex": "0x27",
          "removed": false
        },
        {
          "address": "0x08bbb4a9d79b8399852ce870a901577a939c9983",
          "topics": [
            "0xddf252ad1be2c89b69c2b068fc378daa952ba7f163c4a11628f55a4df523b3ef",
            "0x000000000000000000000000be597ef10f90a3eaf02c380e05aa1e75ad293d69",
            "0x000000000000000000000000eccefbce887dbdc1c393a409baab153f3380a364"
          ],
          "data": "0x00000000000000000000000000000000000000000000000004feb5f1aa8aacfd",
          "blockHash": "0x2c9ea29c1197c65f01fda20386089aa8855345a233bf17063fcfc5b479484d95",
          "blockNumber": "0x2a126a6",
          "blockTimestamp": "0x698ed3f2",
          "transactionHash": "0x893c4c809b010e1d4070326c6e666d9092cf50806e8b271d9114f52e1375a7ab",
          "transactionIndex": "0x10",
          "logIndex": "0x28",
          "removed": false
        },
        {
          "address": "0xbe597ef10f90a3eaf02c380e05aa1e75ad293d69",
          "topics": [
            "0x1c411e9a96e071241c2f21f7726b17ae89e3cab4c78be50e062b03a9fffbbad1"
          ],
          "data": "0x00000000000000000000000000000000000000000000000340300d46cc005f52000000000000000000000000000000000000000000000000000097fb4a3952aa",
          "blockHash": "0x2c9ea29c1197c65f01fda20386089aa8855345a233bf17063fcfc5b479484d95",
          "blockNumber": "0x2a126a6",
          "blockTimestamp": "0x698ed3f2",
          "transactionHash": "0x893c4c809b010e1d4070326c6e666d9092cf50806e8b271d9114f52e1375a7ab",
          "transactionIndex": "0x10",
          "logIndex": "0x29",
          "removed": false
        },
        {
          "address": "0xbe597ef10f90a3eaf02c380e05aa1e75ad293d69",
          "topics": [
            "0xd78ad95fa46c994b6551d0da85fc275fe613ce37657fb8d5e3d130840159d822",
            "0x000000000000000000000000920b806e40a00e02e7d2b94ffc89860fdaed3640",
            "0x000000000000000000000000eccefbce887dbdc1c393a409baab153f3380a364"
          ],
          "data": "0x0000000000000000000000000000000000000000000000000000000000000000000000000000000000000000000000000000000000000000000000e8d4a5100000000000000000000000000000000000000000000000000004feb5f1aa8aacfd0000000000000000000000000000000000000000000000000000000000000000",
          "blockHash": "0x2c9ea29c1197c65f01fda20386089aa8855345a233bf17063fcfc5b479484d95",
          "blockNumber": "0x2a126a6",
          "blockTimestamp": "0x698ed3f2",
          "transactionHash": "0x893c4c809b010e1d4070326c6e666d9092cf50806e8b271d9114f52e1375a7ab",
          "transactionIndex": "0x10",
          "logIndex": "0x2a",
          "removed": false
        }
      ],
      "logsBloom": "0x00200000000040000000000080000800000000000000000000060000000000000000000040000000000000100000000000000000000000000000800000000000000000000000000000000008000000200000000000001000000000000000000000002000000004000000000000000000000002000000000000000010000000000000000000000000000000004000000000000000002000080000004000000000000000000000000000000080000000000000000000000000000000000000000000000002000000000000000000000000000000000000001000000008000000000000000400000000000000000000800000000200000000000000000000000000",
      "type": "0x2",
      "transactionHash": "0x893c4c809b010e1d4070326c6e666d9092cf50806e8b271d9114f52e1375a7ab",
      "transactionIndex": "0x10",
      "blockHash": "0x2c9ea29c1197c65f01fda20386089aa8855345a233bf17063fcfc5b479484d95",
      "blockNumber": "0x2a126a6",
      "gasUsed": "0x1557f",
      "effectiveGasPrice": "0x7a121",
      "blobGasUsed": "0xd610",
      "from": "0xeccefbce887dbdc1c393a409baab153f3380a364",
      "to": "0x920b806e40a00e02e7d2b94ffc89860fdaed3640",
      "contractAddress": null,
      "daFootprintGasScalar": "0x190",
      "l1BaseFeeScalar": "0x7d0",
      "l1BlobBaseFee": "0x1053babd",
      "l1BlobBaseFeeScalar": "0xdbba0",
      "l1Fee": "0xc88aeeb8e",
      "l1GasPrice": "0x10f4ff8b0",
      "l1GasUsed": "0x894"
    },
    {
      "status": "0x1",
      "cumulativeGasUsed": "0x1b5974",
      "logs": [
        {
          "address": "0x255b030f3d2b8023c7acc11a5a25c768a4f99af4",
          "topics": [
            "0x8c5be1e5ebec7d5bd14f71427d1e84f3dd0314c0f7b2291e5b200ac8c7c3b925",
            "0x000000000000000000000000eccefbce887dbdc1c393a409baab153f3380a364",
            "0x000000000000000000000000920b806e40a00e02e7d2b94ffc89860fdaed3640"
          ],
          "data": "0x00000000000000000000000000000000000000000000000000000000000f4240",
          "blockHash": "0x2c9ea29c1197c65f01fda20386089aa8855345a233bf17063fcfc5b479484d95",
          "blockNumber": "0x2a126a6",
          "blockTimestamp": "0x698ed3f2",
          "transactionHash": "0x03b1070f63a57f04f8e3d029d8c0edca5055265d4792b81368d420d39c65bbe6",
          "transactionIndex": "0x11",
          "logIndex": "0x2b",
          "removed": false
        }
      ],
      "logsBloom": "0x00000000000000000000000000000800000000000000000000000000000000000000000000000000000000000000000000000000000000000000000008200000000000000000000000000000000000000000000000000000000000000000000000000000000004000000000000000000000002000000000000000000000000000000000000000000000000004000000000000000000000000000000000000000020000000000000000000000000000000000000000000000000000000000000000000000000000000000000000000000000000000000000000000008000000100010000000000000000000000800000000000200000000000000000000000000",
      "type": "0x2",
      "transactionHash": "0x03b1070f63a57f04f8e3d029d8c0edca5055265d4792b81368d420d39c65bbe6",
      "transactionIndex": "0x11",
      "blockHash": "0x2c9ea29c1197c65f01fda20386089aa8855345a233bf17063fcfc5b479484d95",
      "blockNumber": "0x2a126a6",
      "gasUsed": "0xb5a3",
      "effectiveGasPrice": "0x7a121",
      "blobGasUsed": "0x9c40",
      "from": "0xeccefbce887dbdc1c393a409baab153f3380a364",
      "to": "0x255b030f3d2b8023c7acc11a5a25c768a4f99af4",
      "contractAddress": null,
      "daFootprintGasScalar": "0x190",
      "l1BaseFeeScalar": "0x7d0",
      "l1BlobBaseFee": "0x1053babd",
      "l1BlobBaseFeeScalar": "0xdbba0",
      "l1Fee": "0x921a2c23e",
      "l1GasPrice": "0x10f4ff8b0",
      "l1GasUsed": "0x640"
    },
    {
      "status": "0x1",
      "cumulativeGasUsed": "0x1d60ae",
      "logs": [
        {
          "address": "0x255b030f3d2b8023c7acc11a5a25c768a4f99af4",
          "topics": [
            "0xddf252ad1be2c89b69c2b068fc378daa952ba7f163c4a11628f55a4df523b3ef",
            "0x000000000000000000000000eccefbce887dbdc1c393a409baab153f3380a364",
            "0x000000000000000000000000486c627015838998a04e7742399700ff50643656"
          ],
          "data": "0x00000000000000000000000000000000000000000000000000000000000f4240",
          "blockHash": "0x2c9ea29c1197c65f01fda20386089aa8855345a233bf17063fcfc5b479484d95",
          "blockNumber": "0x2a126a6",
          "blockTimestamp": "0x698ed3f2",
          "transactionHash": "0xaba51b2becb5d4d48eef2c5dcca4a54faaaecc335e00e530e898d9c0c8799c2e",
          "transactionIndex": "0x12",
          "logIndex": "0x2c",
          "removed": false
        },
        {
          "address": "0x08bbb4a9d79b8399852ce870a901577a939c9983",
          "topics": [
            "0xddf252ad1be2c89b69c2b068fc378daa952ba7f163c4a11628f55a4df523b3ef",
            "0x000000000000000000000000486c627015838998a04e7742399700ff50643656",
            "0x000000000000000000000000be597ef10f90a3eaf02c380e05aa1e75ad293d69"
          ],
          "data": "0x0000000000000000000000000000000000000000000000000db3c761d7e9521b",
          "blockHash": "0x2c9ea29c1197c65f01fda20386089aa8855345a233bf17063fcfc5b479484d95",
          "blockNumber": "0x2a126a6",
          "blockTimestamp": "0x698ed3f2",
          "transactionHash": "0xaba51b2becb5d4d48eef2c5dcca4a54faaaecc335e00e530e898d9c0c8799c2e",
          "transactionIndex": "0x12",
          "logIndex": "0x2d",
          "removed": false
        },
        {
          "address": "0x486c627015838998a04e7742399700ff50643656",
          "topics": [
            "0x1c411e9a96e071241c2f21f7726b17ae89e3cab4c78be50e062b03a9fffbbad1"
          ],
          "data": "0x0000000000000000000000000000000000000000000000055e41367ea921cd33000000000000000000000000000000000000000000000000000000000605086a",
          "blockHash": "0x2c9ea29c1197c65f01fda20386089aa8855345a233bf17063fcfc5b479484d95",
          "blockNumber": "0x2a126a6",
          "blockTimestamp": "0x698ed3f2",
          "transactionHash": "0xaba51b2becb5d4d48eef2c5dcca4a54faaaecc335e00e530e898d9c0c8799c2e",
          "transactionIndex": "0x12",
          "logIndex": "0x2e",
          "removed": false
        },
        {
          "address": "0x486c627015838998a04e7742399700ff50643656",
          "topics": [
            "0xd78ad95fa46c994b6551d0da85fc275fe613ce37657fb8d5e3d130840159d822",
            "0x000000000000000000000000920b806e40a00e02e7d2b94ffc89860fdaed3640",
            "0x000000000000000000000000be597ef10f90a3eaf02c380e05aa1e75ad293d69"
          ],
          "data": "0x000000000000000000000000000000000000000000000000000000000000000000000000000000000000000000000000000000000000000000000000000f42400000000000000000000000000000000000000000000000000db3c761d7e9521b0000000000000000000000000000000000000000000000000000000000000000",
          "blockHash": "0x2c9ea29c1197c65f01fda20386089aa8855345a233bf17063fcfc5b479484d95",
          "blockNumber": "0x2a126a6",
          "blockTimestamp": "0x698ed3f2",
          "transactionHash": "0xaba51b2becb5d4d48eef2c5dcca4a54faaaecc335e00e530e898d9c0c8799c2e",
          "transactionIndex": "0x12",
          "logIndex": "0x2f",
          "removed": false
        },
        {
          "address": "0x4200000000000000000000000000000000000006",
          "topics": [
            "0xddf252ad1be2c89b69c2b068fc378daa952ba7f163c4a11628f55a4df523b3ef",
            "0x000000000000000000000000be597ef10f90a3eaf02c380e05aa1e75ad293d69",
            "0x000000000000000000000000eccefbce887dbdc1c393a409baab153f3380a364"
          ],
          "data": "0x00000000000000000000000000000000000000000000000000000274627c8c63",
          "blockHash": "0x2c9ea29c1197c65f01fda20386089aa8855345a233bf17063fcfc5b479484d95",
          "blockNumber": "0x2a126a6",
          "blockTimestamp": "0x698ed3f2",
          "transactionHash": "0xaba51b2becb5d4d48eef2c5dcca4a54faaaecc335e00e530e898d9c0c8799c2e",
          "transactionIndex": "0x12",
          "logIndex": "0x30",
          "removed": false
        },
        {
          "address": "0xbe597ef10f90a3eaf02c380e05aa1e75ad293d69",
          "topics": [
            "0x1c411e9a96e071241c2f21f7726b17ae89e3cab4c78be50e062b03a9fffbbad1"
          ],
          "data": "0x0000000000000000000000000000000000000000000000034de3d4a8a3e9b16d00000000000000000000000000000000000000000000000000009586e7bcc647",
          "blockHash": "0x2c9ea29c1197c65f01fda20386089aa8855345a233bf17063fcfc5b479484d95",
          "blockNumber": "0x2a126a6",
          "blockTimestamp": "0x698ed3f2",
          "transactionHash": "0xaba51b2becb5d4d48eef2c5dcca4a54faaaecc335e00e530e898d9c0c8799c2e",
          "transactionIndex": "0x12",
          "logIndex": "0x31",
          "removed": false
        },
        {
          "address": "0xbe597ef10f90a3eaf02c380e05aa1e75ad293d69",
          "topics": [
            "0xd78ad95fa46c994b6551d0da85fc275fe613ce37657fb8d5e3d130840159d822",
            "0x000000000000000000000000920b806e40a00e02e7d2b94ffc89860fdaed3640",
            "0x000000000000000000000000eccefbce887dbdc1c393a409baab153f3380a364"
          ],
          "data": "0x0000000000000000000000000000000000000000000000000db3c761d7e9521b0000000000000000000000000000000000000000000000000000000000000000000000000000000000000000000000000000000000000000000000000000000000000000000000000000000000000000000000000000000000000274627c8c63",
          "blockHash": "0x2c9ea29c1197c65f01fda20386089aa8855345a233bf17063fcfc5b479484d95",
          "blockNumber": "0x2a126a6",
          "blockTimestamp": "0x698ed3f2",
          "transactionHash": "0xaba51b2becb5d4d48eef2c5dcca4a54faaaecc335e00e530e898d9c0c8799c2e",
          "transactionIndex": "0x12",
          "logIndex": "0x32",
          "removed": false
        }
      ],
      "logsBloom": "0x00200000000040000000000080000800000000000400000000060008000000000000000040000000000000100000000000000000000008000000800008000000000000000000000000000008000000200000000000001000000000000000002000002000000004000004000000000000000002000000000000000010000000000000000000000000000000004000000000000000002000080000004000000000000000000000000000000080000000000000000000000000000000000000000000000002000000000000000000000000000002000000001000000008000000100000000400000000000000000800800000000200000000000000000000000000",
      "type": "0x2",
      "transactionHash": "0xaba51b2becb5d4d48eef2c5dcca4a54faaaecc335e00e530e898d9c0c8799c2e",
      "transactionIndex": "0x12",
      "blockHash": "0x2c9ea29c1197c65f01fda20386089aa8855345a233bf17063fcfc5b479484d95",
      "blockNumber": "0x2a126a6",
      "gasUsed": "0x2073a",
      "effectiveGasPrice": "0x7a121",
      "blobGasUsed": "0xf230",
      "from": "0xeccefbce887dbdc1c393a409baab153f3380a364",
      "to": "0x920b806e40a00e02e7d2b94ffc89860fdaed3640",
      "contractAddress": null,
      "daFootprintGasScalar": "0x190",
      "l1BaseFeeScalar": "0x7d0",
      "l1BlobBaseFee": "0x1053babd",
      "l1BlobBaseFeeScalar": "0xdbba0",
      "l1Fee": "0xe36e0de6a",
      "l1GasPrice": "0x10f4ff8b0",
      "l1GasUsed": "0x9ba"
    }
  ],
  "libraries": [],
  "pending": [],
  "returns": {},
  "timestamp": 1770968050728,
  "chain": 1301,
  "commit": "429308c"
}